{
  "_format": "hh-sol-artifact-1",
  "contractName": "ShieldedToken",
  "sourceName": "contracts/ShieldedToken.sol",
  "abi": [
    {
      "inputs": [
        {
          "internalType": "string",
          "name": "_name",
          "type": "string"
        },
        {
          "internalType": "string",
          "name": "_symbol",
          "type": "string"
        },
        {
          "internalType": "address",
          "name": "_underlying",
          "type": "address"
        }
      ],
      "stateMutability": "nonpayable",
      "type": "constructor"
    },
    {
      "anonymous": false,
      "inputs": [
        {
          "indexed": true,
          "internalType": "address",
          "name": "owner",
          "type": "address"
        },
        {
          "indexed": true,
          "internalType": "address",
          "name": "spender",
          "type": "address"
        },
        {
          "indexed": false,
          "internalType": "uint256",
          "name": "value",
          "type": "uint256"
        }
      ],
      "name": "Approval",
      "type": "event"
    },
    {
      "anonymous": false,
      "inputs": [
        {
          "indexed": true,
          "internalType": "address",
          "name": "holder",
          "type": "address"
        },
        {
          "indexed": false,
          "internalType": "uint256",
          "name": "amount",
          "type": "uint256"
        }
      ],
      "name": "Refunded",
      "type": "event"
    },
    {
      "anonymous": false,
      "inputs": [
        {
          "indexed": true,
          "internalType": "address",
          "name": "holder",
          "type": "address"
        },
        {
          "indexed": false,
          "internalType": "uint256",
          "name": "amount",
          "type": "uint256"
        }
      ],
      "name": "Released",
      "type": "event"
    },
    {
      "anonymous": false,
      "inputs": [
        {
          "indexed": true,
          "internalType": "address",
          "name": "from",
          "type": "address"
        },
        {
          "indexed": true,
          "internalType": "address",
          "name": "to",
          "type": "address"
        },
        {
          "indexed": false,
          "internalType": "uint256",
          "name": "value",
          "type": "uint256"
        }
      ],
      "name": "Transfer",
      "type": "event"
    },
    {
      "inputs": [
        {
          "internalType": "address",
          "name": "",
          "type": "address"
        },
        {
          "internalType": "address",
          "name": "",
          "type": "address"
        }
      ],
      "name": "allowance",
      "outputs": [
        {
          "internalType": "uint256",
          "name": "",
          "type": "uint256"
        }
      ],
      "stateMutability": "view",
      "type": "function"
    },
    {
      "inputs": [
        {
          "internalType": "address",
          "name": "spender",
          "type": "address"
        },
        {
          "internalType": "uint256",
          "name": "amount",
          "type": "uint256"
        }
      ],
      "name": "approve",
      "outputs": [
        {
          "internalType": "bool",
          "name": "",
          "type": "bool"
        }
      ],
      "stateMutability": "nonpayable",
      "type": "function"
    },
    {
      "inputs": [
        {
          "internalType": "address",
          "name": "",
          "type": "address"
        }
      ],
      "name": "balanceOf",
      "outputs": [
        {
          "internalType": "uint256",
          "name": "",
          "type": "uint256"
        }
      ],
      "stateMutability": "view",
      "type": "function"
    },
    {
      "inputs": [],
      "name": "decimals",
      "outputs": [
        {
          "internalType": "uint8",
          "name": "",
          "type": "uint8"
        }
      ],
      "stateMutability": "view",
      "type": "function"
    },
    {
      "inputs": [
        {
          "internalType": "address",
          "name": "to",
          "type": "address"
        },
        {
          "internalType": "uint256",
          "name": "amount",
          "type": "uint256"
        }
      ],
      "name": "depositAndMint",
      "outputs": [],
      "stateMutability": "nonpayable",
      "type": "function"
    },
    {
      "inputs": [
        {
          "internalType": "address",
          "name": "to",
          "type": "address"
        },
        {
          "internalType": "uint256",
          "name": "amount",
          "type": "uint256"
        }
      ],
      "name": "fakeMint",
      "outputs": [],
      "stateMutability": "nonpayable",
      "type": "function"
    },
    {
      "inputs": [],
      "name": "name",
      "outputs": [
        {
          "internalType": "string",
          "name": "",
          "type": "string"
        }
      ],
      "stateMutability": "view",
      "type": "function"
    },
    {
      "inputs": [],
      "name": "owner",
      "outputs": [
        {
          "internalType": "address",
          "name": "",
          "type": "address"
        }
      ],
      "stateMutability": "view",
      "type": "function"
    },
    {
      "inputs": [
        {
          "internalType": "address",
          "name": "holder",
          "type": "address"
        },
        {
          "internalType": "uint256",
          "name": "amount",
          "type": "uint256"
        }
      ],
      "name": "refund",
      "outputs": [],
      "stateMutability": "nonpayable",
      "type": "function"
    },
    {
      "inputs": [
        {
          "internalType": "address",
          "name": "holder",
          "type": "address"
        },
        {
          "internalType": "uint256",
          "name": "amount",
          "type": "uint256"
        }
      ],
      "name": "release",
      "outputs": [],
      "stateMutability": "nonpayable",
      "type": "function"
    },
    {
      "inputs": [],
      "name": "symbol",
      "outputs": [
        {
          "internalType": "string",
          "name": "",
          "type": "string"
        }
      ],
      "stateMutability": "view",
      "type": "function"
    },
    {
      "inputs": [],
      "name": "totalSupply",
      "outputs": [
        {
          "internalType": "uint256",
          "name": "",
          "type": "uint256"
        }
      ],
      "stateMutability": "view",
      "type": "function"
    },
    {
      "inputs": [
        {
          "internalType": "address",
          "name": "to",
          "type": "address"
        },
        {
          "internalType": "uint256",
          "name": "amount",
          "type": "uint256"
        }
      ],
      "name": "transfer",
      "outputs": [
        {
          "internalType": "bool",
          "name": "",
          "type": "bool"
        }
      ],
      "stateMutability": "nonpayable",
      "type": "function"
    },
    {
      "inputs": [
        {
          "internalType": "address",
          "name": "from",
          "type": "address"
        },
        {
          "internalType": "address",
          "name": "to",
          "type": "address"
        },
        {
          "internalType": "uint256",
          "name": "amount",
          "type": "uint256"
        }
      ],
      "name": "transferFrom",
      "outputs": [
        {
          "internalType": "bool",
          "name": "",
          "type": "bool"
        }
      ],
      "stateMutability": "nonpayable",
      "type": "function"
    },
    {
      "inputs": [],
      "name": "underlying",
      "outputs": [
        {
          "internalType": "contract IERC20",
          "name": "",
          "type": "address"
        }
      ],
      "stateMutability": "view",
      "type": "function"
    }
  ],
  "bytecode": "0x60806040523480156200001157600080fd5b5060405162000eeb38038062000eeb8339810160408190526200003491620001d0565b6000620000428482620002ec565b506001620000518382620002ec565b50600680546001600160a01b03199081163317909155600780546001600160a01b0384169216821790556040805163313ce56760e01b8152905163313ce567916004808201926020929091908290030181865afa925050508015620000d5575060408051601f3d908101601f19168201909252620000d291810190620003b8565b60015b620000ed576002805460ff1916601217905562000102565b6002805460ff191660ff929092169190911790555b505050620003e4565b634e487b7160e01b600052604160045260246000fd5b600082601f8301126200013357600080fd5b81516001600160401b03808211156200015057620001506200010b565b604051601f8301601f19908116603f011681019082821181831017156200017b576200017b6200010b565b816040528381526020925086838588010111156200019857600080fd5b600091505b83821015620001bc57858201830151818301840152908201906200019d565b600093810190920192909252949350505050565b600080600060608486031215620001e657600080fd5b83516001600160401b0380821115620001fe57600080fd5b6200020c8783880162000121565b945060208601519150808211156200022357600080fd5b50620002328682870162000121565b604086015190935090506001600160a01b03811681146200025257600080fd5b809150509250925092565b600181811c908216806200027257607f821691505b6020821081036200029357634e487b7160e01b600052602260045260246000fd5b50919050565b601f821115620002e757600081815260208120601f850160051c81016020861015620002c25750805b601f850160051c820191505b81811015620002e357828155600101620002ce565b5050505b505050565b81516001600160401b038111156200030857620003086200010b565b62000320816200031984546200025d565b8462000299565b602080601f8311600181146200035857600084156200033f5750858301515b600019600386901b1c1916600185901b178555620002e3565b600085815260208120601f198616915b82811015620003895788860151825594840194600190910190840162000368565b5085821015620003a85787850151600019600388901b60f8161c191681555b5050505050600190811b01905550565b600060208284031215620003cb57600080fd5b815160ff81168114620003dd57600080fd5b9392505050565b610af780620003f46000396000f3fe608060405234801561001057600080fd5b50600436106100f55760003560e01c8063410085df1161009757806395d89b411161006657806395d89b411461021d578063a9059cbb14610225578063d3148fb614610233578063dd62ed3e1461024657600080fd5b8063410085df146101ac5780636f307dc3146101bf57806370a08231146101ea5780638da5cb5b1461020a57600080fd5b806318160ddd116100d357806318160ddd1461015057806323b872dd14610167578063313ce5671461017a57806331bfce9a1461019957600080fd5b80630357371d146100fa57806306fdde031461010f578063095ea7b31461012d575b600080fd5b61010d6101083660046108fd565b610271565b005b6101176103aa565b6040516101249190610927565b60405180910390f35b61014061013b3660046108fd565b610438565b6040519015158152602001610124565b61015960035481565b604051908152602001610124565b610140610175366004610975565b6104a5565b6002546101879060ff1681565b60405160ff9091168152602001610124565b61010d6101a73660046108fd565b610516565b61010d6101ba3660046108fd565b61054e565b6007546101d2906001600160a01b031681565b6040516001600160a01b039091168152602001610124565b6101596101f83660046109b1565b60046020526000908152604090205481565b6006546101d2906001600160a01b031681565b610117610674565b6101406101753660046108fd565b61010d6102413660046108fd565b610681565b6101596102543660046109d3565b600560209081526000928352604080842090915290825290205481565b6006546001600160a01b031633146102a45760405162461bcd60e51b815260040161029b90610a06565b60405180910390fd5b6102ae8282610772565b60075460405163a9059cbb60e01b81526001600160a01b038481166004830152602482018490529091169063a9059cbb906044016020604051808303816000875af1158015610301573d6000803e3d6000fd5b505050506040513d601f19601f820116820180604052508101906103259190610a29565b6103635760405162461bcd60e51b815260206004820152600f60248201526e151c985b9cd9995c8819985a5b1959608a1b604482015260640161029b565b816001600160a01b03167fb21fb52d5749b80f3182f8c6992236b5e5576681880914484d7f4c9b062e619e8260405161039e91815260200190565b60405180910390a25050565b600080546103b790610a4b565b80601f01602080910402602001604051908101604052809291908181526020018280546103e390610a4b565b80156104305780601f1061040557610100808354040283529160200191610430565b820191906000526020600020905b81548152906001019060200180831161041357829003601f168201915b505050505081565b3360008181526005602090815260408083206001600160a01b038716808552925280832085905551919290917f8c5be1e5ebec7d5bd14f71427d1e84f3dd0314c0f7b2291e5b200ac8c7c3b925906104939086815260200190565b60405180910390a35060015b92915050565b60405162461bcd60e51b815260206004820152603860248201527f536869656c646564546f6b656e3a2046756e647320617265206c6f636b65642060448201527f756e74696c2072656c65617365642062792073656e6465720000000000000000606482015260009060840161029b565b6006546001600160a01b031633146105405760405162461bcd60e51b815260040161029b90610a06565b61054a828261085d565b5050565b6006546001600160a01b031633146105785760405162461bcd60e51b815260040161029b90610a06565b6105828282610772565b60075460065460405163a9059cbb60e01b81526001600160a01b0391821660048201526024810184905291169063a9059cbb906044016020604051808303816000875af11580156105d7573d6000803e3d6000fd5b505050506040513d601f19601f820116820180604052508101906105fb9190610a29565b6106395760405162461bcd60e51b815260206004820152600f60248201526e151c985b9cd9995c8819985a5b1959608a1b604482015260640161029b565b816001600160a01b03167fd7dee2702d63ad89917b6a4da9981c90c4d24f8c2bdfd64c604ecae57d8d06518260405161039e91815260200190565b600180546103b790610a4b565b6006546001600160a01b031633146106ab5760405162461bcd60e51b815260040161029b90610a06565b6007546040516323b872dd60e01b8152336004820152306024820152604481018390526001600160a01b03909116906323b872dd906064016020604051808303816000875af1158015610702573d6000803e3d6000fd5b505050506040513d601f19601f820116820180604052508101906107269190610a29565b6105405760405162461bcd60e51b815260206004820181905260248201527f5472616e73666572206661696c65643a20436865636b20416c6c6f77616e6365604482015260640161029b565b6001600160a01b0382166000908152600460205260409020548111156107d15760405162461bcd60e51b8152602060048201526014602482015273496e73756666696369656e742062616c616e636560601b604482015260640161029b565b6001600160a01b038216600090815260046020526040812080548392906107f9908490610a9b565b9250508190555080600360008282546108129190610a9b565b90915550506040518181526000906001600160a01b038416907fddf252ad1be2c89b69c2b068fc378daa952ba7f163c4a11628f55a4df523b3ef906020015b60405180910390a35050565b6001600160a01b03821660009081526004602052604081208054839290610885908490610aae565b92505081905550806003600082825461089e9190610aae565b90915550506040518181526001600160a01b038316906000907fddf252ad1be2c89b69c2b068fc378daa952ba7f163c4a11628f55a4df523b3ef90602001610851565b80356001600160a01b03811681146108f857600080fd5b919050565b6000806040838503121561091057600080fd5b610919836108e1565b946020939093013593505050565b600060208083528351808285015260005b8181101561095457858101830151858201604001528201610938565b506000604082860101526040601f19601f8301168501019250505092915050565b60008060006060848603121561098a57600080fd5b610993846108e1565b92506109a1602085016108e1565b9150604084013590509250925092565b6000602082840312156109c357600080fd5b6109cc826108e1565b9392505050565b600080604083850312156109e657600080fd5b6109ef836108e1565b91506109fd602084016108e1565b90509250929050565b6020808252600990820152682737ba1037bbb732b960b91b604082015260600190565b600060208284031215610a3b57600080fd5b815180151581146109cc57600080fd5b600181811c90821680610a5f57607f821691505b602082108103610a7f57634e487b7160e01b600052602260045260246000fd5b50919050565b634e487b7160e01b600052601160045260246000fd5b8181038181111561049f5761049f610a85565b8082018082111561049f5761049f610a8556fea26469706673582212205c62c3963c0ce931381cb65b7143a0f233e47c68b79ac12aca83781a45d1d67364736f6c63430008130033",
  "linkReferences": {},
  "deployedLinkReferences": {}
}